:020000040800F2
:1000000000C00020997200085D700008617000084F
:1000100065700008697000086D700008000000003D
:100020000000000000000000000000001162000855
:100030007170000800000000A1620008B55B0008B4
:10004000E1720008E1720008E1720008E172000844
:10005000E1720008E1720008E1720008E172000834
:10006000E1720008E1720008E1720008E172000824
:10007000E1720008E17200087570000885700008E0
:10008000E1720008E1720008E1720008E172000804
:10009000E1720008E1720008E1720008E1720008F4
:1000A000E1720008E1720008E1720008E1720008E4
:1000B000E1720008E1720008E1720008E1720008D4
:1000C000E1720008E1720008E1720008E1720008C4
:1000D000E172000895700008E1720008E172000802
:1000E000E1720008E1720008E1720008E1720008A4
:1000F000E1720008E1720008E1720008E172000894
:10010000E1720008E1720008E1720008E172000883
:10011000E1720008E1720008E1720008A5700008B1
:10012000E1720008E1720008E1720008E172000863
:1001300000000000000000000000000000000000BF
:1001400000000000000000000000000000000000AF
:10015000000000000000000000000000000000009F
:10016000000000000000000000000000000000008F
:10017000000000000000000000000000000000007F
:10018000000000000000000000000000000000006F
:10019000000000000000000000000000000000005F
:1001A000000000000000000000000000000000004F
:1001B000000000000000000000000000000000003F
:1001C000000000000000000000000000000000002F
:1001D000000000000000000000000000000000001F
:0401E0005FF8E0F1F3
:1001F00010B5054C237833B9044B13B10448AFF361
:1002000000800123237010BDE801002000000000E1
:10021000F4AD000808B5034B1BB103490348AFF325
:10022000008008BD00000000EC010020F4AD0008D3
:1002300081F0004102E000BF83F0004330B54FEA97
:1002400041044FEA430594EA050F08BF90EA020F04
:100250001FBF54EA000C55EA020C7FEA645C7FEA97
:10026000655C00F0E2804FEA5454D4EB5555B8BFBA
:100270006D420CDD2C4480EA020281EA030382EA2B
:10028000000083EA010180EA020281EA0303362DBD
:1002900088BF30BD11F0004F4FEA01314FF4801C90
:1002A0004CEA113102D0404261EB410113F0004FA2
:1002B0004FEA03334CEA133302D0524263EB430359
:1002C00094EA050F00F0A780A4F10104D5F1200EF7
:1002D0000DDB02FA0EFC22FA05F2801841F1000152
:1002E00003FA0EF2801843FA05F359410EE0A5F126
:1002F00020050EF1200E012A03FA0EFC28BF4CF057
:10030000020C43FA05F3C01851EBE37101F000450C
:1003100007D54FF0000EDCF1000C7EEB00006EEB19
:100320000101B1F5801F1BD3B1F5001F0CD34908A3
:100330005FEA30004FEA3C0C04F101044FEA4452FA
:1003400012F5800F80F09A80BCF1004F08BF5FEA81
:10035000500C50F1000041EB045141EA050130BD61
:100360005FEA4C0C404141EB0101013C28BFB1F573
:10037000801FE9D291F0000F04BF01460020B1FABE
:1003800081F308BF2033A3F10B03B3F120020CDA91
:100390000C3208DD02F1140CC2F10C0201FA0CF06F
:1003A00021FA02F10CE002F11402D8BFC2F1200CD4
:1003B00001FA02F120FA0CFCDCBF41EA0C0190408A
:1003C000E41AA2BF01EB0451294330BD6FEA0404D3
:1003D0001F3C1CDA0C340EDC04F11404C4F12002BE
:1003E00020FA04F001FA02F340EA030021FA04F3D0
:1003F00045EA030130BDC4F10C04C4F1200220FA27
:1004000002F001FA04F340EA0300294630BD21FA64
:1004100004F0294630BD94F0000F83F4801306BF2A
:1004200081F480110134013D4EE77FEA645C18BF1E
:100430007FEA655C29D094EA050F08BF90EA020FB5
:1004400005D054EA000C04BF1946104630BD91EAAD
:10045000030F1EBF0021002030BD5FEA545C05D1B0
:100460004000494128BF41F0004130BD14F58004EF
:100470003CBF01F5801130BD01F0004545F0FE4163
:1004800041F470014FF0000030BD7FEA645C1ABF98
:10049000194610467FEA655C1CBF0B46024650EACF
:1004A000013406BF52EA033591EA030F41F40021FB
:1004B00030BD00BF90F0000F04BF0021704730B581
:1004C0004FF4806404F132044FF000054FF0000156
:1004D00050E700BF90F0000F04BF0021704730B517
:1004E0004FF4806404F1320410F0004548BF4042EC
:1004F0004FF000013EE700BF42004FEAE2014FEA41
:1005000031014FEA02701FBF12F07F4393F07F4F1B
:1005100081F06051704732F07F4208BF704793F01E
:100520007F4F04BF41F40021704730B54FF4607431
:1005300001F0004521F000411CE700BF50EA010234
:1005400008BF704730B54FF000050AE050EA0102DD
:1005500008BF704730B511F0004502D5404261EB4D
:1005600041014FF4806404F132045FEA915C3FF48E
:10057000D8AE4FF003025FEADC0C18BF03325FEA2B
:10058000DC0C18BF033202EBDC02C2F1200300FADC
:1005900003FC20FA02F001FA03FE40EA0E0021FA01
:1005A00002F11444BDE600BF80F0004002E000BF4D
:1005B00081F0004142001FBF5FEA410392EA030F4E
:1005C0007FEA226C7FEA236C6AD04FEA1262D2EB98
:1005D0001363C1BFD218414048404140B8BF5B429D
:1005E000192B88BF704710F0004F40F4000020F036
:1005F0007F4018BF404211F0004F41F4000121F04C
:100600007F4118BF494292EA030F3FD0A2F1010295
:1006100041FA03FC10EB0C00C3F1200301FA03F1D3
:1006200000F0004302D5494260EB4000B0F5000FF6
:1006300013D3B0F1807F06D340084FEA310102F1B5
:100640000102FE2A51D2B1F1004F40EBC25008BF67
:1006500020F0010040EA03007047490040EB000031
:10066000013A28BFB0F5000FEDD2B0FA80FCACF132
:10067000080CB2EB0C0200FA0CF0AABF00EBC2505F
:1006800052421843BCBFD0401843704792F0000F4D
:1006900081F4000106BF80F400000132013BB5E7A0
:1006A0004FEA41037FEA226C18BF7FEA236C21D016
:1006B00092EA030F04D092F0000F08BF084670477B
:1006C00090EA010F1CBF0020704712F07F4F04D149
:1006D000400028BF40F00040704712F100723CBF5C
:1006E00000F50000704700F0004343F0FE4040F486
:1006F000000070477FEA226216BF08467FEA236344
:100700000146420206BF5FEA412390EA010F40F42E
:10071000800070474FF0000304E000BF10F000437A
:1007200048BF40425FEA000C08BF704743F0964361
:1007300001464FF000001CE050EA010208BF70477C
:100740004FF000030AE000BF50EA010208BF704703
:1007500011F0004302D5404261EB41015FEA010C18
:1007600002BF84460146002043F0B64308BFA3F110
:100770008053A3F50003BCFA8CF2083AA3EBC253F2
:1007800010DB01FA02FC634400FA02FCC2F1200211
:10079000BCF1004F20FA02F243EB020008BF20F048
:1007A0000100704702F1200201FA02FCC2F12002AE
:1007B00050EA4C0021FA02F243EB020008BF20EAA3
:1007C000DC7070474FF0FF0C1CEAD0521EBF1CEAD1
:1007D000D15392EA0C0F93EA0C0F6FD01A4480EABF
:1007E000010C400218BF5FEA41211ED04FF00063A8
:1007F00043EA501043EA5111A0FB01310CF00040D4
:10080000B1F5000F3EBF490041EAD3715B0040EAF9
:10081000010062F17F02FD2A1DD8B3F1004F40EBC9
:10082000C25008BF20F00100704790F0000F0CF09C
:10083000004C08BF49024CEA502040EA51207F3A60
:10084000C2BFD2F1FF0340EAC250704740F400003B
:100850004FF00003013A5DDC12F1190FDCBF00F02C
:1008600000407047C2F10002410021FA02F1C2F1DA
:10087000200200FA02FC5FEA310040F1000053EA76
:100880004C0308BF20EADC70704792F0000F00F0C4
:10089000004C02BF400010F4000F013AF9D040EACA
:1008A0000C0093F0000F01F0004C02BF490011F45E
:1008B000000F013BF9D041EA0C018FE70CEAD1535C
:1008C00092EA0C0F18BF93EA0C0F0AD030F0004CDC
:1008D00018BF31F0004CD8D180EA010000F0004090
:1008E000704790F0000F17BF90F0004F084691F04E
:1008F000000F91F0004F14D092EA0C0F01D1420288
:100900000FD193EA0C0F03D14B0218BF084608D150
:1009100080EA010000F0004040F0FE4040F400009A
:10092000704740F0FE4040F4400070474FF0FF0C2D
:100930001CEAD0521EBF1CEAD15392EA0C0F93EA74
:100940000C0F69D0A2EB030280EA010C49024FEAC6
:10095000402037D04FF0805343EA111143EA10137F
:100960000CF000408B4238BF5B0042F17D024FF437
:10097000000C8B4224BF5B1A40EA0C00B3EB510F12
:1009800024BFA3EB510340EA5C00B3EB910F24BFFB
:10099000A3EB910340EA9C00B3EBD10F24BFA3EB80
:1009A000D10340EADC001B0118BF5FEA1C1CE0D148
:1009B000FD2A3FF650AF8B4240EBC25008BF20F0FB
:1009C000010070470CF0004C4CEA50207F32C2BF4F
:1009D000D2F1FF0340EAC250704740F400004FF0EC
:1009E0000003013A37E792F0000F00F0004C02BF1D
:1009F000400010F4000F013AF9D040EA0C0093F0E7
:100A0000000F01F0004C02BF490011F4000F013B40
:100A1000F9D041EA0C0195E70CEAD15392EA0C0FA8
:100A200008D142027FF47DAF93EA0C0F7FF470AFE0
:100A3000084676E793EA0C0F04D14B023FF44CAF23
:100A400008466EE730F0004C18BF31F0004CCAD1B8
:100A500030F000427FF45CAF31F000437FF43CAFF4
:100A60005FE700BF4FF0FF3C06E000BF4FF0010C16
:100A700002E000BF4FF0010C4DF804CD4FEA4002F8
:100A80004FEA41037FEA226C18BF7FEA236C11D042
:100A900001B052EA530C18BF90EA010F58BFB2EBF5
:100AA000030088BFC81738BF6FEAE17018BF40F075
:100AB000010070477FEA226C02D15FEA402C05D129
:100AC0007FEA236CE4D15FEA412CE1D05DF8040BAE
:100AD000704700BF844608466146FFE70FB5FFF741
:100AE000C9FF002848BF10F1000F0FBD4DF808EDF9
:100AF000FFF7F4FF0CBF012000205DF808FB00BFEA
:100B00004DF808EDFFF7EAFF34BF012000205DF843
:100B100008FB00BF4DF808EDFFF7E0FF94BF012090
:100B200000205DF808FB00BF4DF808EDFFF7D2FF8D
:100B300094BF012000205DF808FB00BF4DF808EDD0
:100B4000FFF7C8FF34BF012000205DF808FB00BF9D
:100B50004FEA4002B2F1FE4F0FD34FF09E03B3EBCA
:100B600012620DD94FEA002343F0004310F0004F0A
:100B700023FA02F018BF404270474FF00000704760
:100B800012F1610F01D1420205D110F0004008BFFF
:100B90006FF0004070474FF000007047034613F8B5
:100BA000012B002AFBD1181A0138704770B54FF09D
:100BB000FF0C4CF4E06C1CEA11541DBF1CEA1355E9
:100BC00094EA0C0F95EA0C0F00F0DEF82C4481EA51
:100BD000030621EA4C5123EA4C5350EA013518BF71
:100BE00052EA033541F4801143F4801338D0A0FB5E
:100BF00002CE4FF00005E1FB02E506F00042E0FB0B
:100C000003E54FF00006E1FB03569CF0000F18BF10
:100C10004EF0010EA4F1FF04B6F5007F64F54074B8
:100C200004D25FEA4E0E6D4146EB060642EAC6214B
:100C300041EA55514FEAC52040EA5E504FEACE2EB8
:100C4000B4F1FD0C88BFBCF5E06F1ED8BEF1004FBB
:100C500008BF5FEA500E50F1000041EB045170BD37
:100C600006F0004646EA010140EA020081EA03017B
:100C7000B4EB5C04C2BFD4EB0C0541EA045170BD77
:100C800041F480114FF0000E013C00F3AB8014F1F1
:100C9000360FDEBF002001F0004170BDC4F100043A
:100CA000203C35DA0C341BDC04F11404C4F12005BB
:100CB00000FA05F320FA04F001FA05F240EA020016
:100CC00001F0004221F0004110EBD37021FA04F64C
:100CD00042EB06015EEA430E08BF20EAD37070BD06
:100CE000C4F10C04C4F1200500FA04F320FA05F065
:100CF00001FA04F240EA020001F0004110EBD37067
:100D000041F100015EEA430E08BF20EAD37070BDD6
:100D1000C4F1200500FA05F24EEA020E20FA04F3AF
:100D200001FA05F243EA020321FA04F001F000415E
:100D300021FA04F220EA020000EBD3705EEA430ECF
:100D400008BF20EAD37070BD94F0000F0FD101F0FE
:100D50000046400041EB010111F4801F08BF013C37
:100D6000F7D041EA060195F0000F18BF704703F075
:100D70000046520043EB030313F4801F08BF013DFC
:100D8000F7D043EA0603704794EA0C0F0CEA1355B8
:100D900018BF95EA0C0F0CD050EA410618BF52EA72
:100DA0004306D1D181EA030101F000414FF0000078
:100DB00070BD50EA410606BF1046194652EA430686
:100DC00019D094EA0C0F02D150EA013613D195EAFA
:100DD0000C0F05D152EA03361CBF104619460AD142
:100DE00081EA030101F0004141F0FE4141F470014C
:100DF0004FF0000070BD41F0FE4141F4780170BD3C
:100E000070B54FF0FF0C4CF4E06C1CEA11541DBFA0
:100E10001CEA135594EA0C0F95EA0C0F00F0A7F8A2
:100E2000A4EB050481EA030E52EA03354FEA0131CF
:100E300000F088804FEA03334FF0805545EA1313E2
:100E400043EA12634FEA022245EA111545EA1065AA
:100E50004FEA00260EF000419D4208BF964244F141
:100E6000FD0404F5407402D25B084FEA3202B61A60
:100E700065EB03055B084FEA32024FF480104FF434
:100E8000002CB6EB020E75EB030E22BFB61A7546A8
:100E900040EA0C005B084FEA3202B6EB020E75EB3B
:100EA000030E22BFB61A754640EA5C005B084FEAA3
:100EB0003202B6EB020E75EB030E22BFB61A754670
:100EC00040EA9C005B084FEA3202B6EB020E75EB7B
:100ED000030E22BFB61A754640EADC0055EA060E3C
:100EE00018D04FEA051545EA16754FEA06164FEA7F
:100EF000C30343EA52734FEAC2025FEA1C1CC0D12B
:100F000011F4801F0BD141EA00014FF000004FF0B7
:100F1000004CB6E711F4801F04BF01430020B4F178
:100F2000FD0C88BFBCF5E06F3FF6AFAEB5EB030C30
:100F300004BFB6EB020C5FEA500C50F1000041EB2D
:100F4000045170BD0EF0004E4EEA113114EB5C04FA
:100F5000C2BFD4EB0C0541EA045170BD41F48011CD
:100F60004FF0000E013C90E645EA060E8DE60CEAD5
:100F7000135594EA0C0F08BF95EA0C0F3FF43BAFF2
:100F800094EA0C0F0AD150EA01347FF434AF95EAA9
:100F90000C0F7FF425AF104619462CE795EA0C0F8D
:100FA00006D152EA03353FF4FDAE1046194622E75A
:100FB00050EA410618BF52EA43067FF4C5AE50EA34
:100FC00041047FF40DAF52EA43057FF4EBAE12E724
:100FD0004FF0FF3C06E000BF4FF0010C02E000BF05
:100FE0004FF0010C4DF804CD4FEA410C7FEA6C5CE8
:100FF0004FEA430C18BF7FEA6C5C1BD001B050EA8B
:10100000410C0CBF52EA430C91EA030F02BF90EA75
:10101000020F0020704710F1000F91EA030F58BF34
:10102000994208BF90422CBFD8176FEAE37040F096
:10103000010070474FEA410C7FEA6C5C02D150EA34
:10104000013C07D14FEA430C7FEA6C5CD6D152EAEF
:10105000033CD3D05DF8040B704700BF84461046B4
:1010600062468C461946634600E000BF01B5FFF7B3
:10107000B7FF002848BF10F1000F01BD4DF808ED83
:10108000FFF7F4FF0CBF012000205DF808FB00BF54
:101090004DF808EDFFF7EAFF34BF012000205DF8AE
:1010A00008FB00BF4DF808EDFFF7E0FF94BF0120FB
:1010B00000205DF808FB00BF4DF808EDFFF7CEFFFC
:1010C00094BF012000205DF808FB00BF4DF808ED3B
:1010D000FFF7C4FF34BF012000205DF808FB00BF0C
:1010E0004FEA410C7FEA6C5C02D150EA013C0AD124
:1010F0004FEA430C7FEA6C5C02D152EA033C02D116
:101100004FF0000070474FF0010070474FEA410276
:1011100012F5001215D211D56FF47873B3EB625249
:1011200012D94FEAC12343F0004343EA505311F070
:10113000004F23FA02F018BF404270474FF0000002
:10114000704750EA013005D111F0004008BF6FF040
:10115000004070474FF00000704700BF704700BF6D
:10116000002876D010B590F83D30044603F0FF0219
:10117000002B69D002232268374984F83D308A4227
:1011800013681CD001F500618A4218D0B2F1804F7B
:1011900048D0A1F598318A4244D001F580618A4255
:1011A00040D001F580618A423CD0A06923F08003E1
:1011B0000343E16813606368D162936212E0A06840
:1011C00023F070032169034323F440730B43A169A7
:1011D00023F080030B431360E368D3626368936278
:1011E00063691363012353611369DB0703D5136933
:1011F00023F001031361012384F8463084F83E3064
:1012000084F83F3084F8403084F8413084F842302C
:1012100084F8433084F8443084F8453084F83D3015
:10122000002010BDA16823F0700320690B4323F454
:101230004073A169034323F08003E0680B436168B6
:101240001360D0629162CDE7044B80F83C20984750
:1012500090E70120704700BF002C0140F9690008A9
:1012600090F83D30012B27D10222036880F83D2001
:10127000DA68124942F001028B42DA6011D0104A5A
:1012800093420ED0B3F1804F0BD0A2F59832934227
:1012900007D002F58062934203D002F58062934248
:1012A00004D19A6802F00702062A03D01A6842F0B5
:1012B00001021A600020704701207047002C014095
:1012C00000340140704700BF002876D010B590F878
:1012D0003D30044603F0FF02002B69D00223226850
:1012E000374984F83D308A4213681CD001F500610B
:1012F0008A4218D0B2F1804F48D0A1F598318A4285
:1013000044D001F580618A4240D001F580618A4273
:101310003CD0A06923F080030343E1681360636855
:10132000D162936212E0A06823F070032169034345
:1013300023F440730B43A16923F080030B43136034
:10134000E368D36263689362636913630123536143
:101350001369DB0703D5136923F00103136101232C
:1013600084F8463084F83E3084F83F3084F84030CA
:1013700084F8413084F8423084F8433084F84430B3
:1013800084F8453084F83D30002010BDA16823F07A
:10139000700320690B4323F44073A169034323F0D6
:1013A0008003E0680B4361681360D0629162CDE70F
:1013B000044B80F83C20984790E70120704700BF1D
:1013C000002C0140C512000899BB90F83E30012B5B
:1013D0003BD1022380F83E300122036801F01F0157
:1013E000186A8A4020EA020010B41862196A224C76
:1013F0000A43A3421A622AD0204A934227D0B3F16B
:10140000804F0AD01E4A934207D002F58062934271
:1014100003D002F58062934204D19A6802F0070279
:10142000062A03D01A6842F001021A60002010BC9C
:101430007047042910D0082916D090F84130012BAC
:1014400003D1022380F84130C6E7012070475A6C6F
:1014500042F400425A64E0E790F83F30012BF4D1A7
:10146000022380F83F30B7E790F84030012BECD1F1
:10147000022380F84030AFE7002C014000340140E7
:1014800000040040002800F0968070B590F83D30D0
:1014900004460D4603F0FF02002B00F08780022275
:1014A000236884F83D209A68444922F4804222F05F
:1014B00007029A608B421A6824D001F500618B42C2
:1014C00020D0B3F1804F0BD0A1F598318B4207D0DB
:1014D00001F580618B4203D001F580618B4207D119
:1014E000A16822F070020A43216922F440720A4383
:1014F000A16922F080020A43E1681A60D962626839
:101500009A6212E0A16822F070020A43216922F473
:1015100040720A43A16922F080020A431A60E2681D
:10152000DA6262689A6262691A6301225A611A6910
:10153000D20703D51A6922F001021A614FF0010C9B
:1015400098689969AE69AA6821F4407121F0030195
:1015500042EA06220A4322F47C462A69E96912011A
:1015600042EA0122E96826F0FC060A43196A21F0E2
:10157000220E296A42EA0132324369686E692D6897
:1015800041EA0611284341EA0E0198609A61196206
:1015900084F846C084F83EC084F83FC084F842C056
:1015A00084F843C084F83DC0002070BD044B80F82F
:1015B0003C20984773E70120704700BF002C014092
:1015C000496A000890F83C30012B00F0C7800123E5
:1015D00030B5844680F83C300C2A08D8DFE802F0A9
:1015E0003E07070768070707940707070C00002353
:1015F0008CF83C30012030BD03680D681A6A186A07
:1016000022F4005220F4805018625C68D86920F4FB
:10161000E64040EA05208D6842EA05326B4DAB4258
:1016200000F0AE8005F50065AB4200F0A9805C607B
:10163000D8614868096918641A62DA6942F400627C
:10164000DA61DA6922F48062DA61DA6942EA012257
:10165000DA6100238CF83C30002030BD03680D684F
:101660001A6A186A22F0020220F0010018625C680F
:10167000986920F0730028438D682A43534DAB428C
:1016800000F0848005F50065AB427FD05C60986116
:101690004868096958631A629A6942F008029A61B7
:1016A0009A6922F004029A619A690A439A61D0E722
:1016B00003680D681A6A186A22F0200220F01000F0
:1016C00018625C68986920F4E64040EA05208D685D
:1016D00042EA05123D4DAB4267D005F50065AB42CD
:1016E00063D05C6098614868096998631A629A6976
:1016F00042F400629A619A6922F480629A619A695E
:1017000042EA01229A61A4E703680D681A6A186A1E
:1017100022F4007220F4807018625C68D86920F0AE
:10172000730028438D6842EA0522284DAB4217D04A
:1017300005F50065AB4213D05C60D8614868096963
:10174000D8631A62DA6942F00802DA61DA6922F0D3
:101750000402DA61DA690A43DA617AE70220704743
:10176000CD6822F4006242EA052224F44054D1E913
:1017700005E54EEA050E22F4806244EA0E14DBE72A
:101780004D6924F4804444EA851450E7CD6822F082
:1017900008022A4324F44074D1E905E54EEA050E17
:1017A00022F004024EEA040470E7CD6822F08002C1
:1017B00042EA051224F44064D1E905E54EEA050E3B
:1017C00022F0400244EA8E048BE700BF002C014067
:1017D00090F83C20012A6ED0034630B40120022448
:1017E0001A6883F83C0083F83D40946824F47F44F1
:1017F00024F0770494600C68602C76D019D8402CC3
:101800005BD02ED8202C04D000F2888034F0100158
:1018100007D1916821F07001214341F007019160E7
:1018200000200121002283F83D1083F83C2030BCC9
:101830007047B4F5805FF3D0B4F5005F2BD0702C07
:10184000EFD1D1E9015094682843CD6824F47F4159
:1018500040EA052008439060916841F0770191606B
:10186000DEE7502CDDD14868CC68116A21F00A010E
:101870000843116A21F001011162916921F0F00120
:1018800041EA041191611062916821F0700141F008
:1018900057019160C4E7D1E9015094682843CD68AD
:1018A00024F47F4140EA052008439060916841F4A8
:1018B00080419160B4E7022070474868CC68116AA3
:1018C00021F00A010843116A21F0010111629169B6
:1018D00021F0F00141EA041191611062916821F058
:1018E000700141F0470191609AE74868CC68116A3D
:1018F00021F0A00141EA0011106A20F010001062EE
:10190000906920F4704040EA04309061116291685F
:1019100021F0700141F06701916081E7302C3FF4C4
:1019200078AF7EE7704700BF704700BF704700BFC9
:10193000704700BF036870B5DE681D690446A907DB
:1019400001D5B20751D4690701D572073AD42B07E4
:1019500001D5300724D4EA0601D5F30610D4E807F0
:1019600001D5F10757D42A0601D533065BD46806A2
:1019700001D571065FD4AA0601D5B30642D470BD65
:101980006FF0100108222368204619612277DB6975
:1019900013F4407F63D0354B984700232377DEE76D
:1019A0006FF0080104222368204619612277DB6961
:1019B000990751D12E4B984720462E4B984700232C
:1019C0002377C8E76FF004010222236820461961DB
:1019D00022779B6913F4407F3BD1254B98472046E3
:1019E000244B984700232377B1E76FF002021A6176
:1019F000012202779B699B0725D01C4B9847002347
:101A00002377A0E76FF0200122682046BDE87040F0
:101A1000194B116118476FF0010122682046174BDE
:101A2000116198479FE76FF0800122682046144BB0
:101A3000116198479BE76FF0400122682046114BE7
:101A40001161984797E70A4B98472046094B9847FA
:101A5000D5E7064B9847C5E7044B9847AFE7044BDB
:101A600098472046034B984797E700BF291900087D
:101A7000251900082D1900080D1C000879650008BB
:101A8000111C000831190008002938D190F84230A3
:101A9000012B40D1022380F842300422036801F078
:101AA0000F01186A8A4020EA020010B41862196A0D
:101AB000224C0A431A625A6CA34242F400425A640E
:101AC00011D01F4A93420ED0B3F1804F0BD0A2F534
:101AD0009832934207D002F58062934203D002F518
:101AE0008062934204D19A6802F00702062A03D06A
:101AF0001A6842F001021A60002010BC70470429E5
:101B00000BD0082911D090F84530012B03D10223C6
:101B100080F84530C1E70120704790F84330012B31
:101B2000F9D1022380F84330B7E790F84430012B15
:101B3000F1D1022380F84430AFE700BF002C014010
:101B40000034014090F83C20012A2FD003460220A7
:101B50001A6830B483F83D0050680C68144D20F0CA
:101B600070002043AA429468506011D0114882420C
:101B70000ED0B2F1804F0BD0A0F59830824207D042
:101B800000F58060824203D000F58060824204D17B
:101B9000496824F080040C4394600022012183F8FA
:101BA0003C2083F83D10104630BC7047022070473F
:101BB000002C01400034014090F83C30012B23D030
:101BC0000246D1E902034FF0000C23F440730343B3
:101BD000486823F480630343086823F400630343E5
:101BE000086923F4805310B403434C6923F4005371
:101BF000C8692343116823F4804303434B6482F88C
:101C00003CC0604610BC704702207047704700BF60
:101C1000704700BF074A08B51368074943F010032F
:101C2000136003208847054B0F209847044B9847C3
:101C3000002008BD00200240C12A000809710008E8
:101C4000B5700008034A044B11681B780B441360FD
:101C5000704700BF0402002004000020014B1868F8
:101C6000704700BF0402002070B50446064EB0471E
:101C7000631C054602D0054B1B781C44B047401B33
:101C8000A042FBD370BD00BF5D1C00080400002013
:101C9000002800F0B2812DE9F04303680546DC0717
:101CA00083B034D594494A6802F00C02042A00F04B
:101CB000EB804A6802F00C02082A00F0E1806B68B1
:101CC000B3F5803F10D0002B00F00881B3F5A02FB2
:101CD00000F07E81884B1A6822F480321A601A68FC
:101CE00022F480221A6004E0834A136843F48033AC
:101CF0001360824CA047804F064604E0A047801B3B
:101D0000642800F2E7803B689A03F7D52B689807B0
:101D100027D5794A516811F00C0F00F08B8051687B
:101D200001F00C01082900F081802B69002B00F0E4
:101D300016810122724B714C1A60A0476E4F064605
:101D400004E0A047801B022800F2C4803B689B0788
:101D5000F7D53B686A6923F0F80343EAC2033B60A6
:101D60002B68190720D45C0742D5634BDA69D00091
:101D70007BD50026634F3B68D90540F19B805F4CC3
:101D8000EB68012B00F0FB80002B00F0C980052BD5
:101D9000594B1A6A00F0298122F001021A621A6A6C
:101DA00022F004021A62EFE0AB69002B4DD0012251
:101DB000534B524CC3F88024A0474F4F064604E0D3
:101DC000A047801B022800F285807B6A9A07F7D51E
:101DD0004D4B4E4A1B68A2FB03235B0A019300BFD5
:101DE000019B5A1E0192002BF9D12B685C07BCD4D1
:101DF000EB69BBB1404E726802F00C02082A00F099
:101E0000D6800022022B3E4B3C4C1A6600F0F78035
:101E1000A047054603E0A047401B02285AD8336874
:101E20009B01F8D4002003B0BDE8F0835268D103D1
:101E30003FF57BAF304A126892072FD52A69012AF5
:101E40002CD0012003B0BDE8F0832D4A2B4CC2F802
:101E50008034A047284F064603E0A047801B022895
:101E600038D87B6A9B07F8D4BFE7DA69012642F0CD
:101E70008052DA61DB6903F080530093009B79E7BD
:101E80004A68D0037FF51BAF1B4A126891037FF5A8
:101E90003EAF6A68002A7FF43AAFD2E71649686914
:101EA0000A6822F0F80242EAC0020A6019077FF5C8
:101EB0005AAF79E73B68114C43F480733B60A0470D
:101EC00080463B68DA053FF55BAFA047A0EB080012
:101ED0006428F6D9032003B0BDE8F083064E074C12
:101EE000336823F480333360336823F48023336012
:101EF000A047074610E000BF001002405D1C00082C
:101F0000000042420070004000000020D34D6210EB
:101F1000A047C01B6428DDD833689B03F8D4F5E6DE
:101F20004D4F41F288393B6A23F001033B623B6A23
:101F300023F004033B62A047804604E0A047A0EBE7
:101F400008004845C6D83B6A9807F7D4002E3FF4EE
:101F50004FAF414AD36923F08053D36148E73F4AEA
:101F60003F4C1360A0473C4F064603E0A047801B50
:101F70000228AFD83B689807F8D42B68F1E6364AB8
:101F8000136A43F001031362A04741F28839074600
:101F9000DFF8C48003E0A047C01B48459AD8D8F8B2
:101FA00020309B07F7D5002E3FF422AFD1E7012B5D
:101FB0003FF447AF73682A6A03F4803191427FF49B
:101FC00040AF686A03F47013181A18BF01202AE79B
:101FD00003F18043A3F53C331A6842F480221A606F
:101FE0001A6842F480321A6083E642F004021A62F0
:101FF0001A6A42F001021A62C6E701207047A04740
:10200000074604E0A047C01B02283FF663AF3368D1
:102010009901F7D42B6AB3F5803F05D17268A9689E
:1020200022F400320A43726001200B4E696A726822
:102030000B4322F474120949134373600866A047E6
:10204000054604E0A047401B02283FF643AF336833
:102050009A01F7D5E6E600BF0010024000004242B8
:102060005D1C0008002800F0A180564A2DE9F843C5
:102070001368044603F007038B420D460CD2136825
:1020800023F007030B431360136803F007038B422D
:1020900002D00120BDE8F88323689E0714D55807B5
:1020A00004D549494A6842F4E0624A60190704D5F8
:1020B00045494A6842F460524A604349A0684A6808
:1020C00022F0F00202434A60DA0720D562683E4BF4
:1020D000012A1B686CD0022A65D09E07D9D53A4EDA
:1020E000DFF8E880736841F2883923F00303134373
:1020F0007360C047074603E0C047C01B48455AD835
:102100007368626803F00C03B3EB820FF4D12D4ABD
:10211000136803F00703AB4209D9136823F00703E0
:102120002B431360136803F00703AB42B1D123685C
:10213000580706D52449E0684A6822F4E062024361
:102140004A60190707D5204A2169536823F4605370
:1021500043EAC10353601C494A6802F00C03082B90
:1021600010D01B4B184A1B4952681B48C2F303127C
:102170008A5C1A49D3400068194A0B6090470020D6
:10218000BDE8F8831748C2F38343D203C35C14D578
:102190000F484A6800FB03F31349C2F340428A5CCC
:1021A000B3FBF2F3DEE79F0199D472E70120704799
:1021B0009B0394D46DE703206CE70C4A02FB03F306
:1021C000D0E700BF00200240001002405D1C000864
:1021D00000127A0018AE000808000020000000205D
:1021E000097100082CAE000828AE000800093D0067
:1021F000044B054A5B680549C3F30223CB5C1068B6
:10220000D8407047001002400000002010AE0008C7
:10221000044B054A5B680549C3F3C223CB5C1068D5
:10222000D8407047001002400000002010AE0008A7
:102230000F220D4B10B402605A680C4C02F00302DE
:1022400042605A6802F0F00282605A6802F4E0626A
:10225000C2605B68DB0803F4E0630361236810BCC1
:1022600003F007030B60704700100240002002409B
:102270002DE9F04F0C6885B0002C00F08C80B14B3C
:10228000984200F0B0800022031D019301250F2722
:10229000924613468346DFF8B08205E0013334FAF4
:1022A00003F002F1040276D005FA03F030EA040CE0
:1022B00000EA0406F2D14C68122C73D8122C16D8FE
:1022C000DFE814F0820013008D00A0011500150056
:1022D0001500150015001500150015001500150056
:1022E00015001500150089006C00D1F80CA0FF2E18
:1022F00099BF5C469446019CA2F1200C206807FA25
:102300000CFE20EA0E000AFA0CFC40EA0C002060E9
:102310004C68E00038D5D8F8180023F0030C40F0E2
:102320000100C8F81800D8F818000CF1804C00F033
:10233000010003900CF5803C03F0030903984FEA79
:102340008909DCF8080007FA09FE20EA0E0E7F482A
:10235000834500F00B817E48834500F044817D4831
:10236000834500F07F817C48834500F04E817B48A7
:1023700083450CBF0520062000FA09F040EA0E0054
:10238000F9E020EA060020600C68013334FA03F01B
:1023900002F1040288D105B0BDE8F08FC86800F1F1
:1023A0000C0AA4E7DFF8B8C164450DD000F2108133
:1023B000ACF5801C644507D00CF5702C644503D047
:1023C000ACF5801C644592D18C68002C40F01181E2
:1023D0004FF0040A8BE7C86800F1040A87E7C86871
:1023E00000F1080A83E74FF000096FF01F054FF076
:1023F000010C4FF00F084B46DFF84CE1594F05E058
:10240000013334FA03F205F10405C4D00CFA03F2E7
:1024100032EA040A04EA0206F2D14C68122C00F2F5
:10242000FA80122C16D8DFE814F008011300150109
:1024300030011500150015001500150015001500D8
:1024400015001500150015001500150019011101E2
:10245000D1F80C90FF2E51D9AA463C46226808FAC2
:102460000AFB22EA0B0209FA0AFA42EA0A0222608D
:102470004A68D40046D5DEF8184003F0030A44F059
:102480000104CEF81840DEF818404FEA8A0A04F03A
:1024900001040394039C23F0030404F1804404F535
:1024A0008034D4F808B008FA0AFA2BEA0A0AC4F809
:1024B00008A0D40228D5DFF8B0A0DAF808403443E9
:1024C000CAF80840940229D5DFF89CA0DAF80C403D
:1024D0003443CAF80C4094032AD5DFF88CA0DAF80C
:1024E00004403443CAF804401F4C12F4803F226871
:1024F0000CBFB243324322600C6881E704464FEAC6
:10250000830AABE70C687BE7DFF85CA0DAF80840E9
:1025100024EA0604CAF808409402D5D4DFF848A09B
:10252000DAF80C4024EA0604CAF80C409403D4D428
:10253000DFF834A0DAF8044024EA0604CAF80440BC
:10254000D2E700BF0008014000100240000C01402B
:10255000001001400014014000180140001C01401F
:10256000000022100408014000040140012000FA8C
:1025700009F040EA0E00CCF80800DFF818C114F4A6
:10258000801FDCF8080014BF3043B043CCF80800CB
:10259000DFF800C114F4001FDCF80C0014BF304356
:1025A000B043CCF80C00DFF8ECC014F4003FDCF8CA
:1025B000040014BF3043B04314F4803F354CCCF8D2
:1025C000040020683FF4DDAE304320600C6865E60F
:1025D000DFF8C4C064453FF4F7AE0CF5803C6445B9
:1025E0007FF485AEF0E6022000FA09F040EA0E0022
:1025F000C1E7012C4FF0080A0CBFCBF81000CBF854
:10260000140074E64FF0000A71E6042000FA09F0A5
:1026100040EA0E00AFE7DFF884A054450DD027D87C
:10262000AAF5801A544508D00AF5702A544504D0FA
:10263000AAF5801A54457FF40DAF8C6814B3012CB1
:10264000174C25D062614FF0080903E7CA6802F110
:102650000C09FFE6CA6802F10809FBE6CA6802F144
:102660000409F7E6032000FA09F040EA0E0082E7C9
:10267000DFF824A05445E0D00AF5803A54457FF4B1
:10268000E9AEDAE74FF00409E4E64FF00009E1E6CD
:102690002261D8E700040140000031100000221040
:1026A0000008014083681940081E18BF01207047C8
:1026B00002B9090401617047002838D001681D4A39
:1026C0000346914210B429D91B4A1C480A44A0FB76
:1026D00002021B4C12099200C3E90F42D3E9012404
:1026E0002243DC68022022431C694FF0010C224384
:1026F0005C6983F8210022439C6908682243DC69F5
:102700006FF30D102243002402430A609C6383F898
:10271000204083F821C0204610BC7047094A074872
:102720000A44A0FB02021209074C9200D4E70120E0
:10273000704700BF07040240F8FBFDBFCDCCCCCCF6
:1027400000040240F8FFFDBF0000024070B490F8A2
:102750002040012C0BD0012590F8214080F820501A
:10276000AC425FFA84FC05D0002380F820300220C0
:1027700070BC7047022480F8214000248463046800
:10278000056C26680CFA05F526F001062660C66B76
:10279000756063604368102BC36A0BBFA260A160C1
:1027A000E160E26053B1236843F00E0323602368C5
:1027B000002043F00103236070BC7047236823F0BE
:1027C00004032360236843F00A032360EFE700BF9C
:1027D00090F821200346022A06D004229A630022A0
:1027E000012083F8202070474FF0010C1A68002068
:1027F000116821F00E011160116821F001011160D2
:10280000D3E90F120CFA02F24A60002283F821C0C9
:1028100083F82020704700BF08B590F821200346B8
:10282000022A03D0042201209A6308BD02682D48C1
:102830001168824221F00E011160116821F001013E
:1028400011601DD928498A4233D014318A4239D0C7
:1028500014318A423DD014318A4214BF4FF4803281
:102860004FF4805221494A60012000215A6B83F8BD
:10287000210083F820100AB118469047002008BDB7
:102880001B498A4217D014318A421DD014318A4222
:102890001CD014318A4212D014318A421CD0143117
:1028A0008A421CD0824214BF4FF480324FF08072B3
:1028B00002E00122D6E701220E494A60D4E74FF434
:1028C0008052F9E71022CDE71022F5E74FF480722D
:1028D000F2E74FF48072C5E74FF48032ECE74FF433
:1028E0008012E9E780000240080402400004024030
:1028F0000800024000000240042270B4C66B016C64
:10290000346803688A4022421D6826D06A0724D5AD
:102910001A68910603D41A6822F004021A60644A05
:1029200093425AD902F56272934200F09F801432AA
:10293000934200F0A3801432934200F0928014324C
:10294000934214BF4FF480234FF48043594A53609D
:10295000C36A002B7CD170BC704702228A4022429D
:1029600022D0AA0720D51A68910606D401211A6838
:1029700022F00A021A6080F821104D4A934247D98A
:1029800002F56272934273D01432934262D01432D1
:10299000934275D01432934214BF4FF400334FF476
:1029A0000053444A53604DE008228A402242D2D06C
:1029B0002A07D0D51A68002422F00E021A600123DB
:1029C000026B03FA01F17160836380F8204080F8A4
:1029D0002130002ABFD070BC104737498B4243D00A
:1029E00014318B4248D014318B4237D014318B4292
:1029F0004CD014318B424FD014318B4252D0934281
:102A000014BF4FF480224FF080622C4B5A609FE736
:102A100029498B422ED014318B421DD014318B4268
:102A200031D014318B4234D014318B4237D0143131
:102A30008B423AD0934214BF4FF400324FF00072F1
:102A40001E4B5A600022836A80F82020002B82D01F
:102A500070BC18472023A4E72022F1E74FF48062DE
:102A6000D3E74FF4806371E70422CEE704236DE7D8
:102A7000022396E70222E3E74022C6E7402365E708
:102A80004FF400738DE74FF40072D9E74FF48042A2
:102A9000BBE74FF40052D3E74FF48022B5E74FF481
:102AA0000032CDE74FF48002AFE74FF40012C7E7E2
:102AB0008000024000040240080002400000024082
:102AC0004FF6FF0C06490302CA6803F4E06302EA0A
:102AD0000C02134343F0BF6343F40033CB607047F1
:102AE00000ED00E01A4B00B5DB68C3F30223C3F12D
:102AF000070EBEF1040F03F1040C28BF4FF0040EC3
:102B0000BCF1060F1BD9A3F1030C4FF0FF3303FAFE
:102B10000CF322EA03024FF0FF3303FA0EF321EA2B
:102B2000030303FA0CF313431B010028DBB209DB98
:102B300000F1604000F5614080F8003300BD0022E4
:102B40009446E8E7034A00F00F000244137600BD04
:102B500000ED00E0FCEC00E0002807DB012300F0C2
:102B60001F01034A40098B4042F82030704700BFE4
:102B700000E100E028B3F8B504464CF6CC45D4E9B2
:102B8000003145F25550A268104E1D601860596022
:102B90009A60B04723680546DA6890070CD041F286
:102BA0003C37B047401BB842236802D9DA68910726
:102BB00009D1DA689207F4D14AF6AA2200201A60F5
:102BC000F8BD012070470320F8BD00BF5D1C000860
:102BD0002DE9F0471F4682B0DFF8C48014460D4649
:102BE0000A9E8146C0473E44361AC0472D4B0137E6
:102BF0001A68C2F3CB3206FB02F2019217D082466A
:102C0000D9F800309B6835EA03030CBF0123002389
:102C1000A34216D0C047A0EB0A00B04215D2019BD8
:102C2000002B019B08BF0026013B0193E8E7D9F880
:102C30000020936835EA03030CBF01230023A3425D
:102C4000F7D1002002B0BDE8F087D9E900315A6819
:102C5000B1F5827F22F0E0025A6014D0D9F8282022
:102C6000B2F5005F07D11A6822F400521A601A68A0
:102C700042F400521A6001220023032089F85120F7
:102C800089F85030DEE7D9F80820B2F5004F02D0BD
:102C9000B2F5806FE2D11A6822F040021A60DDE7D7
:102CA0005D1C000800000020002858D0F8B5436AD9
:102CB0000446002B44D00023C0E90433002094F8DC
:102CC0005130A06203F0FF02002B3FD0D4E9013263
:102CD00002264FF0010C002502F4044203F4827333
:102CE0001343E26884F85160266902F400621343DA
:102CF00006F0020633436669A169276A06EA0C06F4
:102D00003343E66907F0800E01F4007706F03806D9
:102D10003B432268334343EA0E0303431068090C24
:102D200001F0040120F04000106013605160D3698D
:102D3000284623F40063D361656584F851C0F8BD6B
:102D40004268B2F5827FB9D0C361B7E72046054B30
:102D500084F850209847A06A00F40050B6E701209C
:102D6000704700BF9D6700082DE9F0430446874F78
:102D700085B01D4688469146B84794F85130012BDE
:102D80007FD10646D8B2B8F1000F77D0B9F1000F65
:102D900074D094F85030012B73D000230322A36326
:102DA00084F85120A38763652364A4F83690636494
:102DB000E387A36884F850002068B3F5004F01460C
:102DC000C4F83080A4F8349007D1036823F040039E
:102DD0000360036843F48043036003685B0654D5D3
:102DE000E3686268B3F5006F58D0002A40F0928023
:102DF00098F800300373236B01332363E38E013BA8
:102E00009BB2E386E38E9BB2A3B1681C79D12368A1
:102E10009A68910740F18380226B12781A73E28ED0
:102E2000236B013A92B2E286E28E013392B22363BF
:102E3000002AECD101222B4602212046544F009655
:102E4000B8470246002871D12B46802120460096C3
:102E5000B84700286AD1A36833B922680393D368BE
:102E6000039393680393039B0122002384F851206A
:102E7000606D84F85030C01A18BF012005B0BDE85D
:102E8000F083022005B0BDE8F0830368626843F078
:102E900040030360E368B3F5006FA6D1002A6AD04F
:102EA000B9F1010F67D0E38E9BB2002BC2D06A1C30
:102EB00052D183689B070FD5226B32F8023BC36067
:102EC000E38E2263013B9BB2E386E38E9BB2002B31
:102ED000B0D083689B07EFD4B847E38E9BB2002B3A
:102EE000A8D02068E5E7226B12781A73E38E226B74
:102EF000013B01329BB22263E386E38E9BB2002B3F
:102F000098D023689A689207EDD4B847801BA842EE
:102F1000F3D328E0B9F1010F7FF474AF68E7B84745
:102F2000E38E9BB2002B7FF472AF83E7636D43F0B7
:102F300020036365202363658DE7226B32F8023B33
:102F4000CB60E38E2263013B9BB2E386E38E9BB2B0
:102F5000002B3FF46FAF21688B689807EDD4B8471A
:102F6000831BAB42F2D3012384F8513000230320AA
:102F700084F8503082E7434633F8022BC260236363
:102F8000E38E013B9BB2E3868DE700BF5D1C00082A
:102F9000D12B00082DE9F0430446934D85B09146AE
:102FA0001F468846A84794F851300646012B6268B0
:102FB0000BD0B2F5827F40F09680D9B2A368002B87
:102FC00040F09180042940F08E80B8F1000F00F0AD
:102FD0009780B9F1000F00F09380002F00F09080EF
:102FE00094F85030012B7ED0012384F8503094F8AF
:102FF00051302168042B1CBF052384F85130002375
:103000006365E787E786C4E910330B68C4F8389036
:103010005806A787C4F83080A78603D40B6843F00E
:1030200040030B60E368B3F5006F6DD0002A00F039
:10303000DF80012F00F0DC800C9B0127013327D0BB
:103040009FE0226893689B070FD5E38E9BB263B124
:103050005FB10027236B1B781373E38E216B013B59
:1030600001319BB22268E3862163936813F0010368
:103070000DD0E18F89B251B1D2681F46A36B1A708F
:10308000E38FA26B013B01329BB2A263E387A847A7
:10309000E38E9BB2002BD4D1E38F9BB2002BD0D117
:1030A0000122022120460C9B504D0096A847024663
:1030B000E8B9802120460C9B0096A847B8B9A368C0
:1030C00033B922680393D368039393680393039BF4
:1030D0000122002384F85120606D84F85030C01A1A
:1030E00018BF012000E0022005B0BDE8F083636D49
:1030F000202243F0200363650023626584F850308A
:10310000012005B0BDE8F083002A7CD1424632F8A8
:10311000023BCB60E38E2263013B9BB2E3860C9BB8
:103120000127013324D071E02268936898070DD5F8
:10313000E38E9BB253B147B1236B33F8021BD160CE
:103140002363E38E013B9BB2E3860027936813F071
:1031500001030CD0E18F89B249B1D2681F46A36B3D
:1031600023F8022BA363E38F013B9BB2E387A847BD
:10317000E38E9BB2002BD7D1E38F9BB2002BD3D130
:103180008EE7E38E9BB21BB9E38F9BB2002B87D0F7
:103190002268936899070FD5E38E9BB263B15FB144
:1031A0000027236B1B781373E38E226B013B511CAA
:1031B0009BB22268E3862163936813F0010303D076
:1031C000E18F89B2002952D1A8470C9B801B9842FD
:1031D000D7D30123032084F85130002384F85030E2
:1031E00005B0BDE8F08300BF5D1C0008D12B0008CE
:1031F00098F800300B73E38E226B013B01329BB2D7
:103200002263E38618E7012F89D17FE7E38E9BB223
:1032100023B9E38F9BB2002B3FF442AF226893683F
:103220009B070DD5E38E9BB253B147B1236B33F8A7
:10323000021BD1602363E38E013B9BB2E386002730
:10324000936813F001030CD0E18F89B249B1D268C1
:103250001F46A36B23F8022BA363E38F013B9BB2B2
:10326000E387A8470C9B801B9842CFD3B1E7D26875
:103270001F46A36B1A70E38FA26B013B01329BB216
:10328000A263E387A0E700BF2DE9F0471D4690F851
:10329000513082B0012B78D15FFA83F9436804463C
:1032A000B3F5827F90468A4603D18368002B00F0F5
:1032B000D0807C4EB0470746BAF1000F61D0B8F11C
:1032C000000F5ED094F85030012B5ED0012284F8BC
:1032D00050200422002384F85120A2682168B2F50E
:1032E000004F6365C4E910332363A386A4F83E80CE
:1032F000C4F838A0E386A4F83C800B4600F0A08018
:103300000A68500603D40A6842F040020A60E26884
:10331000002A40D1E28F92B2C2B16A1C0ED069E09D
:103320001A7BA36B1A70E28FA16B013A92B2E2870B
:10333000E38F01319BB2A16343B123689A68D00740
:10334000EED4B047E38F9BB2002BF6D16368B3F5A0
:10335000827F00F088802B46002280212046524D3B
:103360000097A847002840F08F800123002284F8AE
:103370005130636D84F85020B3EB020918BF4FF051
:103380000109484602B0BDE8F0874FF002094846FF
:1033900002B0BDE8F087E28F92B2002AD6D06A1C54
:1033A0003ED18B68D8070FD5CA68A36B23F8022BD0
:1033B000E28FA363013A92B2E287E38F9BB2002BC4
:1033C000C4D08B68D807EFD4B047E38F9BB2002BF3
:1033D000BCD02168E5E71A7BA36B1A70E38FA26B60
:1033E000013B01329BB2A263E387E38F9BB2002BC8
:1033F000ACD023689A68D107EDD4B047C01BA8426F
:10340000F3D314E0DB68A26B22F8023BE38FA263E4
:10341000013B9BB2E387E38F9BB2002B96D02368DE
:103420009A68D207EED4B047C01BA842F3D3012359
:1034300084F8513000234FF0030984F85030A0E79E
:103440000A6822F040020A600A6822F480420A6098
:1034500056E7009504251346144C0A4680F851504F
:10346000A04781468DE7A368B3F5004F13D0B3F5AD
:10347000806F7FF470AF21682B460A6822F040020B
:103480000A600022012169E7636D43F02003636550
:103490002023636569E72268136823F04003136003
:1034A00059E700BF5D1C0008D12B0008952F0008CC
:1034B000002863D070B590F84130044603F0FF0255
:1034C000002B56D0D4E902262421236884F8411029
:1034D000D968206921F40051A56902436069D96067
:1034E0001969024321F4405131431961D9682448D4
:1034F00021F4B05121F00C010A43DA605A69834289
:1035000022F4407242EA05025A610CBF1D4B1E4B69
:103510009847626800EB8003920003EB8303B3FBE0
:10352000F2F34FF0640E00254FF0200C174821688D
:10353000A0FB036252090EFB12331B013233A0FBC6
:103540000303120102EB53128A600B69284623F42D
:1035500090430B614B6923F02A034B61CB6843F422
:103560000053CB60656484F841C084F842C0656351
:1035700070BD074B80F840209847A3E701207047B3
:103580000038014011220008F12100081F85EB518D
:10359000516F0008F8B5044690F84100202803D187
:1035A00001B11AB90120F8BD0220F8BD00254FF085
:1035B000210EE284A2841346A06B2268DFF840C08B
:1035C000104F114E6564216284F841E00432C0E975
:1035D0000C65C0E90AC70D4DA8476FF0400322688B
:1035E000136002F1140353E8003F43F0800302F13B
:1035F000140040E800310029F3D10020F8BD00BFDD
:103600001536000869360008813600084D27000885
:10361000704700BF08B50368406A1B6813F02003B9
:103620001AD10268C38402F1140353E8003F23F067
:10363000800302F1140040E800310029F3D102F1C7
:103640000C0353E8003F43F0400302F10C0040E854
:1036500000310029F3D108BD014B984708BD00BFD8
:1036600011360008704700BF08B5406A014B984703
:1036700008BD00BF65360008704700BF704700BF37
:1036800008B5406A0368596990F84120212A0BD097
:10369000596990F84220222A1ED0436C274A43F0F1
:1036A00010034364904708BD0906F1D50022C28487
:1036B00003F10C0252E8002F22F0C00203F10C0CBF
:1036C0004CE800210029F3D1202280F841205969DB
:1036D00090F84220222AE0D14A06DED50022C28597
:1036E00003F10C0252E8002F22F4907203F10C0C4B
:1036F0004CE800210029F3D103F1140252E8002F15
:1037000022F0010203F1140C4CE800210029F3D14E
:10371000026B012A05D02022002380F84220036397
:10372000BBE703F10C0252E8002F22F0100203F174
:103730000C0C4CE800210029F3D1ECE77D360008A1
:1037400008B50023406A024AC385C384904708BD78
:103750007D360008704700BF83680168B3F5805F5D
:10376000826A41D0002B38D04B6803F07F0313707E
:10377000826A0132C38D8262013B9BB2C385002BFA
:1037800031D14FF0200C00B5026883B0D16821F030
:103790002001D160D16821F48071D160516921F09C
:1037A0000101516180F842C04363016B012924D1BA
:1037B000036302F10C0353E8003F23F0100302F10E
:1037C0000C0C4CE800310029F3D11368DB0618D447
:1037D000818D0F4B984703B000BD0369002BC3D107
:1037E0004B68DBB2C3E770470369002BF8D14B6825
:1037F000C3F3080322F8023BBCE7064B984703B02B
:1038000000BD01911368019353680193019BDFE7A9
:10381000553700087936000830B5036804461A6841
:1038200083B012F00F0FDD68596913D1910602D5EC
:10383000A90600F1BB80216B012945D0100602D5F5
:10384000290600F1BD80520602D5680600F1D78036
:1038500003B030BD11F0010140F0928015F4907F6B
:10386000E9D0D0070CD5E80540F1F380606C40F05A
:1038700001006064500740F1D780002940F0848047
:10388000900740F1D780100700F1E080616C0029BB
:10389000DED0910609D5AA0607D594F84220222A3F
:1038A00003D18B4B2046984723685A69616C02F01C
:1038B000400201F0080152EA010540F01381204660
:1038C000844B98476564C3E7D006B7D5E906B5D5FC
:1038D000002201921A6801925A680192019A5A696B
:1038E000550640F1BA80E06B0268526892B2002A35
:1038F000AED0A18D9142ABD9E2858269202A36D023
:1039000003F10C0252E8002F22F4807203F10C053F
:1039100045E800210029F3D103F1140252E8002FF9
:1039200022F0010203F1140545E800210029F3D13A
:1039300003F1140252E8002F22F0400203F11405B3
:1039400045E800210029F3D1202284F84220216398
:1039500003F10C0252E8002F22F0100203F10C05D3
:1039600045E800210029F3D15B4B9847A18D022245
:103970006263E28D2046891A584B89B2984767E7FF
:10398000D0074CD4500745D5616C41F00201616409
:10399000910741D5616C41F00401616411077FF525
:1039A00075AF616C41F0080161646FE790F84230D7
:1039B000222B7FF44DAF464B03B0BDE83040184793
:1039C00094F84120212A7FF443AFA168226AB1F51F
:1039D000805F00F0D780511C216212785A60E28C1F
:1039E000013A92B2E284002A7FF432AFDA6822F020
:1039F0008002DA60DA6842F04002DA6028E72021CB
:103A0000DA68204622F04002DA60354B84F8411033
:103A100098471DE79107BDD41107C2D436E7E805E2
:103A20003FF524AF5007AFD4900703D500293FF4EA
:103A30002AAFAFE710077FF529AF05F02000084354
:103A4000AFD1626C002A7FF430AF01E7A906A8D499
:103A5000F7E750073FF514AFE6E7E18DE28D89B255
:103A600092B2002A3FF4F4AEA28D511A89B2002915
:103A70003FF4EEAE03F10C0252E8002F22F49072F4
:103A800003F10C0545E800200028F3D103F11402EE
:103A900052E8002F22F0010203F1140545E800204E
:103AA0000028F3D1202284F84220206303F10C0285
:103AB00052E8002F22F0100203F10C0545E8002027
:103AC0000028F3D102222046044B62639847BFE6E8
:103AD000593700087D360008D127000855370008FF
:103AE00011360008194601F10C0252E8002F22F4A9
:103AF00090720C3141E8002019460028F3D103F1FF
:103B0000140252E8002F22F0010203F1140040E8F1
:103B100000210029F3D1226B012A22D0002220218A
:103B200084F8421022635A69550627D503F114021E
:103B300052E8002F22F0400203F1140040E8002177
:103B40000029F3D1E06BC8B1144A154B4263984782
:103B500000283FF47DAEE06B436B03B0BDE830401E
:103B6000184703F10C0252E8002F22F0100203F173
:103B70000C0040E800210029F3D1CFE72046094B93
:103B8000984765E6216900297FF425AF32F8021BCA
:103B9000C1F308015960226221E700BF41370008E4
:103BA000192800087D3600084FF0FF31002200F18F
:103BB0000803C0E90131C0E903330260704700BF68
:103BC00000230361704700BF4268036810B4946823
:103BD0000133C1E901246160916010BC0861036098
:103BE000704700BF30B40D686B1C10D000F10803A3
:103BF0001C465B681A68AA42FAD902684B60013217
:103C000099608C606160086130BC02607047046933
:103C10006368F2E7036910B4D0E901125C688A6056
:103C200051600021844208BF5A601A680161013A5C
:103C30001A60186810BC704770B51646026C0446CE
:103C4000856B2AB9066801354EB31046A56370BD71
:103C50008EB9174B406898476368216CA2680B4483
:103C60009342636028BF236805F1010528BF6360A4
:103C70000020A56370BD0E4BC0689847226CE368B6
:103C800051429B1A2268E360934202D2A3680B441C
:103C9000E360022E08D001350020A56370BD806866
:103CA000044B9847A660D1E7012D38BF0125DFE717
:103CB000AF910008ED53000870B582B09DF8185020
:103CC00040B94FF0500383F31188BFF36F8FBFF3F8
:103CD0004F8FFEE71C4683B1002A49D0B1B1502373
:103CE0000193019B502B1AD04FF0500383F311889E
:103CF000BFF36F8FBFF34F8FFEE74FF0500383F397
:103D00001188BFF36F8FBFF34F8FFEE74FF0500363
:103D100083F31188BFF36F8FBFF34F8FFEE7019BD3
:103D200022600122C4E90F0184F84620194B98470C
:103D3000FF230022216CA26384F8443084F84530CC
:103D4000E36B226801FB03F3591A626013440A44CF
:103D5000C4E90232104E04F11000B04704F124000F
:103D6000B0470E4B9847204684F84C5002B070BDC7
:103D700039B950230193019B502BB5D12246019BA9
:103D8000CEE74FF0500383F31188BFF36F8FBFF37B
:103D90004F8FFEE735620008A93B000879620008F2
:103DA0002DE9F04F87B00392002800F028810446E7
:103DB0008B461E46002900F0BB80022E0BD1E36B20
:103DC000012B08D04FF0500383F31188BFF36F8F9E
:103DD000BFF34F8FFEE7A44B9847002800F01881EF
:103DE000DFF88892C847A26BE36B9A42C0F01D814E
:103DF000022E00F01A810023CDE901B6DFF87082AF
:103E00009C4D9D4F039A002A00F012810DF1100A7B
:103E1000002B00F0F080C047984B9847C84794F8B3
:103E20004430FF2B04BF002384F8443094F845301D
:103E3000FF2B04BF002384F84530C0475046904B09
:103E400003A99847002840F0F680C847A26BE36BAF
:103E50009A427AD0C047C84794F845304FFA83FB5E
:103E6000BBF1000F18DD04F1240A06E00BF1FF3B63
:103E70005FFA8BF34FFA8BFB73B1636A63B1504601
:103E8000A8470028F2D00BF1FF3BB8475FFA8BF34D
:103E90004FFA8BFB002BF0D1FF2384F84530C0474D
:103EA000C84794F844304FFA83FBBBF1000F18DD8C
:103EB00004F1100A06E00BF1FF3B5FFA8BF34FFAB7
:103EC0008BFB73B1236963B15046A8470028F2D039
:103ED0000BF1FF3BB8475FFA8BF34FFA8BFB002BDC
:103EE000F0D1FF2384F84430C047664B9847C84759
:103EF000A16BE26B0123914284D2DDE901B6624BF2
:103F00003246594620469847636A002B40F0E580C8
:103F100048B14FF0E0234FF08052C3F8042DBFF3B7
:103F20004F8FBFF36F8FC047012007B0BDE8F08F00
:103F3000036C002B3FF441AF4FF0500383F3118823
:103F4000BFF36F8FBFF34F8FFEE704F1100AC04736
:103F50004E4B504603999847C84794F845305EB297
:103F6000002E12DD04F1240B03E0013EF3B276B221
:103F70005BB1636A4BB15846A8470028F5D0013EB3
:103F8000B847F3B276B2002BF3D1FF2384F8453063
:103F9000C047C84794F844304FFA83FBBBF1000F89
:103FA00007DC15E00BF1FF3B5FFA8BF34FFA8BFB5D
:103FB00073B1236963B15046A8470028F2D00BF1D2
:103FC000FF3BB8475FFA8BF34FFA8BFB002BF0D126
:103FD000FF2384F84430C0472A4B9847002886D1F5
:103FE0004FF0E0234FF08052C3F8042DBFF34F8F02
:103FF000BFF36F8F7BE75046254B98470BE74FF099
:10400000500383F31188BFF36F8FBFF34F8FFEE729
:10401000039B002B3FF4E4AE4FF0500383F3118871
:10402000BFF36F8FBFF34F8FFEE7DFF8448066E783
:10403000C047002079E7C84794F845305DB2002DAD
:1040400028DD0C4EDFF830A004F1240703E06B1EDE
:10405000DAB25DB2F2B1636AE3B13846B047002824
:10406000F5D0D047F3E700BFCD5300083562000814
:104070007962000885520008C153000849500008C1
:104080002D53000859500008393C00084D510008D4
:1040900015530008FF2384F84530C047C84794F8FB
:1040A00044305DB2002D11DD104FDFF8449004F173
:1040B000100603E06B1EDAB25DB23AB123692BB190
:1040C0003046B8470028F5D0C847F3E7FF2384F807
:1040D0004430C047074B9847ABE7044B04F124003A
:1040E000984700283FF41FAF13E700BF8552000830
:1040F000C15300085950000800284BD02DE9F04169
:1041000004460E4617461D4621B3022D0BD1E36B24
:10411000012B08D04FF0500383F31188BFF36F8F4A
:10412000BFF34F8FFEE7274B9847EFF311884FF00F
:10413000500383F31188BFF36F8FBFF34F8FA26BD0
:10414000E36B9A4212D3022D10D0002088F311881D
:10415000BDE8F081036C002BD7D04FF0500383F300
:104160001188BFF36F8FBFF34F8FFEE72A4694F895
:1041700045503146A36B2046134B6DB298476B1CDC
:1041800011D06B1C5BB284F84530012088F3118894
:10419000BDE8F0814FF0500383F31188BFF36F8FB8
:1041A000BFF34F8FFEE7636A002BEED0074B04F19D
:1041B000240098470028E8D0002FE6D001233B6078
:1041C000E3E700BF39640008393C00088552000865
:1041D0002DE9F04F85B00192002800F07781044668
:1041E0008A46002900F086809A4B9847002800F004
:1041F0008E80994FB847A36B002B40F08981019BBB
:10420000002B00F08781954B02A8954E954DDFF865
:1042100058829847CDF800A0B047944B9847B847CC
:1042200094F84430FF2B04BF002384F8443094F802
:104230004530FF2B04BF002384F84530B0478C4B3A
:1042400001A902A8984700286ED1B847A36B002B9C
:1042500000F0C880B047B84794F845304FFA83FB68
:10426000BBF1000F19DDDFF8FCA104F1240905E022
:104270000BF1FF33DAB24FFA83FB72B1636A63B1B9
:104280004846D0470028F3D0774B98470BF1FF33CF
:10429000DAB24FFA83FB002AF0D1FF2384F84530CD
:1042A000B047B84794F844304FFA83FBBBF1000F96
:1042B00019DDDFF8B0A104F1100905E00BF1FF33BF
:1042C000DAB24FFA83FB72B1236963B14846D04733
:1042D0000028F3D0644B98470BF1FF33DAB24FFA62
:1042E00083FB002AF0D1FF2384F84430B047614BB0
:1042F000984769E0036C002B3FF476AF4FF0500312
:1043000083F31188BFF36F8FBFF34F8FFEE7019BDD
:10431000002B3FF46EAF4FF0500383F31188BFF3CF
:104320006F8FBFF34F8FFEE7B84794F845304FFAD1
:1043300083FABAF1000F18DD04F1240906E00AF14E
:10434000FF3A5FFA8AF34FFA8AFA73B1636A63B18C
:104350004846A8470028F2D00AF1FF3AC0475FFA62
:104360008AF34FFA8AFA002BF0D1FF2384F8453004
:10437000B047B84794F844304FFA83FABAF1000FC7
:1043800018DD04F1100906E00AF1FF3A5FFA8AF33A
:104390004FFA8AFA73B1236963B14846A8470028E7
:1043A000F2D00AF1FF3AC0475FFA8AF34FFA8AFA6D
:1043B000002BF0D1FF2384F84430B0472D4B9847B1
:1043C000B847A36B4BB1B047B847A36B002B40F085
:1043D0008680019B002B7FF41FAFB047002005B003
:1043E000BDE8F08F04F12409B047234B48460199FA
:1043F0009847B84794F845304FFA83FBBBF1000F5C
:1044000017DDDFF860A005E00BF1FF33DAB24FFAF9
:1044100083FB72B1636A63B14846D0470028F3D08A
:10442000114B98470BF1FF33DAB24FFA83FB002AA6
:10443000F0D1FF2384F84530B047B84794F84430B2
:104440004FFA83FBBBF1000F2DDDDFF818A004F15C
:10445000100919E0CD530008356200081553000813
:104460007962000885520008C153000849500008CD
:104470002D530008595000084D5100080BF1FF332F
:10448000DAB24FFA83FB72B1236963B14846D04771
:104490000028F3D0294B98470BF1FF33DAB24FFADB
:1044A00083FB002AF0D1FF2384F84430B047244B2B
:1044B0009847002888D14FF0E0234FF08052C3F88E
:1044C000042DBFF34F8FBFF36F8F7DE74FF0500385
:1044D00083F31188BFF36F8FBFF34F8FFEE7DDF8D3
:1044E00000A0226C6AB1E168A06811448142E160D9
:1044F00028BF21685046134D28BFE1600093A847AC
:10450000009B013BA363236933B9B047012066E7F1
:104510000D4EE6E70C4E60E70C4B04F11000984797
:104520000028F2D04FF0E0234FF08052C3F8042D62
:10453000BFF34F8FBFF36F8FE7E700BFC153000892
:1045400059500008AF9100087962000885520008B0
:104550002DE9F84310B304460E46174691B12B4B94
:104560009847EFF311894FF0500383F31188BFF39D
:104570006F8FBFF34F8FA56BCDB9284689F3118894
:10458000BDE8F883036C002BE9D04FF0500383F3B0
:104590001188BFF36F8FBFF34F8FFEE74FF05003CB
:1045A00083F31188BFF36F8FBFF34F8FFEE794F84B
:1045B0004480226C4FFA88F85AB1E168A36811442C
:1045C0009942E16028BF21683046114B28BFE16065
:1045D0009847013DB8F1FF3FA56309D008F10103F9
:1045E0005BB284F84430012089F31188BDE8F88378
:1045F0002369002BF7D0074B04F1100098470028DF
:10460000F1D0002FEFD001233B60ECE739640008C4
:10461000AF91000885520008124B1A687AB19A6867
:1046200062B11A6992B19A6992B11A6A92B19A6AA0
:1046300092B11A6B92B19A6B92B17047012203EB5F
:10464000C20C43F83210CCF8040070470222F6E79F
:104650000322F4E70422F2E70522F0E70622EEE760
:104660000722ECE7080200202DE9F0470546DFF8B5
:10467000C4900C461646C84795F844302E4FFF2B81
:1046800004BF002385F8443095F84530FF2B04BF64
:10469000002385F84530B847AB6B002B43D0C847A3
:1046A00095F845305CB2002C15DD244EDFF890A063
:1046B00005F1240803E0631EDAB25CB25AB16B6AFA
:1046C0004BB14046B0470028F5D0D047631EDAB260
:1046D0005CB2002AF3D1FF2385F84530B847C847BC
:1046E00095F844305CB2002C16DDDFF85080DFF81E
:1046F000509005F1100603E0631EDAB25CB25AB1C5
:104700002B694BB13046C0470028F5D0C847631E1F
:10471000DAB25CB2002AF3D1FF2385F844303B467D
:10472000BDE8F047184732462146064B05F1240004
:104730009847B4E73562000879620008855200089E
:10474000C1530008E55100082DE9F843324B0546F6
:104750009847324A324E1368013313603368002B96
:1047600031D0304CE86A236833B32F4F2F4A304999
:104770001368013313606B640B68834238BF0860B1
:1047800000EB80002B4B07EB8000291D98472A4B3C
:104790009847236873B13268EB6AD26A9A4209D2A9
:1047A0004FF0E0234FF08052C3F8042DBFF34F8F3A
:1047B000BFF36F8FBDE8F88333681B4FDB6A83421A
:1047C00098BF3560D2E735601368012B03D0E86AE3
:1047D000154F144CCAE7144FDFF860803C4607F5CC
:1047E0008C6920461434C047A145FAD1DFF85090B7
:1047F000144C4846C0472046C0471348C04713489A
:10480000C0471348C047134BE86AC3F80090124BE7
:104810001C60044CAAE700BF356200086C0200204F
:104820004007002060020020E0020020500200202B
:1048300064020020C93B000879620008A93B000817
:10484000CC020020B80200209C0200208802002038
:1048500070020020B4020020B00200202DE9884838
:10486000214CDFF888A0DFF88890DFF88880224D9F
:10487000224EDFF88CB023681BB3D047D9F80C3038
:10488000DF68381DC0472B68013B2B602368013B64
:104890002360B04797F8593063B1012B20D0022B29
:1048A000E9D04FF0500383F31188BFF36F8FBFF34C
:1048B0004F8FFEE7386BD8473846D8472368002B20
:1048C000DBD1104B1B68012BD5D94FF0E0234FF003
:1048D0008052C3F8042DBFF34F8FBFF36F8FCAE729
:1048E0003846D847C7E700BF840200203562000879
:1048F00088020020153C00086C0200207962000844
:104900009D600008E00200202DE9F04F4D4B83B080
:104910001D6801351D60002D49D04B4B01931B686C
:104920009D4251D3494F3B681E68002E00F08180A4
:104930000026DFF81C81DFF81CB1DFF81CA129E09C
:104940002046464B9847D9F8282009F118000AB1AB
:10495000424B9847D9F82C20DAF8001002EB82007D
:104960008A4201463E4B08EB800098BF08EB81006D
:10497000214688BFCAF800209847DBF80030D9F8F4
:104980002C20DB6A9A4228BF46F001063B681B6870
:10499000002B52D03B68DB68D3F80C90D9F8042088
:1049A00009F104049542CBD2019B1A6011E0274B18
:1049B0001A6812680AB34FF0500383F31188BFF3EB
:1049C0006F8FBFF34F8FFEE70026DFF88480DFF89C
:1049D00084B0DBF80030234ADB6A03EB83039B00DF
:1049E00058F803301068012B98BF002814BF01202D
:1049F0000020304303B0BDE8F08F1B4A18681168EF
:104A000019601A4910600A6801320A601A6812684F
:104A100032B94FF0FF330C4A1360019213467EE720
:104A20001B68094ADB680192DB685B681360134608
:104A300075E7DFF81C80DFF81CB04FF0FF33019AF8
:104A40001360C6E7680200204C020020B402002078
:104A5000E00200204007002064020020153C00080E
:104A6000C93B000858020020B00200205402002078
:104A70002DE9F04F444D454B83B098472B68013BDF
:104A80002B602B68002B67D1414B1B68002B63D038
:104A9000404E3368002B73D03F4B404FDFF800810E
:104AA000DFF800B1DFF800A10193F368DC6804F1DE
:104AB000040904F11800B8474846B847E36AD8F833
:104AC000002003EB8300934249460BEB800088BF34
:104AD000C8F80030D047354BE26A1B68DB6A9A425F
:104AE00041D30122019B1A603368002BDDD1304B8A
:104AF0001A681268002A3ED01A682E4BD268D26813
:104B000052681A60DFF8B080D8F80040ACB10127D5
:104B10002A4E05E0B04708B1019B1F60013C0AD056
:104B20002B68002BF6D0D8F80030013C03F10103CC
:104B3000C8F80030F4D1C8F80040019B1B685BB195
:104B40004FF0E0234FF08052C3F8042DBFF34F8F96
:104B5000BFF36F8F012400E00024194B98472046D3
:104B600003B0BDE8F08F3368002B9ED1104B1A685C
:104B70001268002AC0D14FF0FF320E4B1A60C1E715
:104B8000054B0193BEE700BF4802002035620008D4
:104B90006C0200209C02002058020020153C0008F6
:104BA00064020020E0020020C93B0008400700200A
:104BB000B40200204C0200205C02002009490008D9
:104BC000796200082DE9F04782B098460B9B0C9C57
:104BD000BBB16CB15C230193019B5C2B1AD04FF0ED
:104BE000500383F31188BFF36F8FBFF34F8FFEE73E
:104BF0004FF0500383F31188BFF36F8FBFF34F8FD4
:104C0000FEE74FF0500383F31188BFF36F8FBFF3BC
:104C10004F8FFEE70B9B074623631846019B022339
:104C20000D469600324684F85930A521384B9847F6
:104C3000236B321F134423F00706002D65D02B7819
:104C400084F83430002B36D06B7884F8353093B349
:104C5000AB7884F8363073B3EB7884F8373053B3DD
:104C60002B7984F8383033B36B7984F8393013B347
:104C7000AB7984F83A30F3B1EB7984F83B30D3B1B7
:104C80002B7A84F83C30B3B16B7A84F83D3093B121
:104C9000AB7A84F83E3073B1EB7A84F83F3053B18D
:104CA0002B7B84F8403033B16B7B84F8413013B1F7
:104CB000AB7B84F84230002384F843300A9D4FF0E8
:104CC0000009372D28BF3725DFF848A0C4E913595C
:104CD000201DE562D047C5F1380504F11800D04722
:104CE00042463946C4F8549030460B4BA56184F8CF
:104CF00058902461646298470246084B204622601F
:104D00009847204602B0BDE8F08784F83450D5E7D4
:104D100095900008C13B0008E5610008494700087C
:104D20002DE9F04796008046454C30460D469946A1
:104D3000A04700287DD007465C20A04704460028F5
:104D400074D000230763324684F8593038463D4B0F
:104D5000A5219847236B043E1E4426F00706002D2C
:104D60006BD02B7884F83430002B36D06B7884F8F5
:104D7000353093B3AB7884F8363073B3EB7884F87E
:104D8000373053B32B7984F8383033B36B7984F8E8
:104D9000393013B3AB7984F83A30F3B1EB7984F856
:104DA0003B30D3B12B7A84F83C30B3B16B7A84F8C2
:104DB0003D3093B1AB7A84F83E3073B1EB7A84F82E
:104DC0003F3053B12B7B84F8403033B16B7B84F898
:104DD000413013B1AB7B84F84230002384F8433078
:104DE000089D0027372D28BF3725DFF85CA0C4E9D0
:104DF0001357201DE562D047C5F1380504F11800AE
:104E0000D047124B67654A4641463046A56184F853
:104E10005870246164629847099B206003B11C604C
:104E200020460B4B98470120BDE8F0873846094BD8
:104E300098474FF0FF30BDE8F08784F83450CFE753
:104E4000195F000895900008C13B0008E561000863
:104E5000494700089D600008F8B550B94FF0E023BD
:104E60004FF08052C3F8042DBFF34F8FBFF36F8F05
:104E7000F8BD1E4D2B6843B14FF0500383F31188EA
:104E8000BFF36F8FBFF34F8FFEE72B6804460133EC
:104E90002B60174B174E1F683068174B043098472C
:104EA0003368E4195C6010D3144A154B10683168FC
:104EB000043198472B68A3B94FF0500383F311884E
:104EC000BFF36F8FBFF34F8FFEE70E4A0C4B106896
:104ED0003168043198470C4B1A68944238BF1C6003
:104EE000E8E70A4B98470028B8D0F8BD48020020F0
:104EF0006802002040070020153C0008B002002096
:104F0000E53B0008B40200204C020020714A000872
:104F1000F0B5002485B068463F4B02AA01A9CDE94F
:104F2000004498470198C8B1009D75B15C22039276
:104F3000039A029E5C2A1AD04FF0500383F3118823
:104F4000BFF36F8FBFF34F8FFEE74FF0500383F334
:104F50001188BFF36F8FBFF34F8FFEE74FF0500301
:104F600083F31188BFF36F8FBFF34F8FFEE70227E4
:104F7000BE40A5213246039B85F85970274B286314
:104F80009847274B2A6B6B63331F1A44254F281D04
:104F9000C5E9134485F8384085F84340EC6222F0B7
:104FA0000706B84705F11800B84738271E492246BA
:104FB0001E4B6C6530462D61AF616D6285F85840BF
:104FC000984702461A4B28462A609847194B98473B
:104FD00001280CD0013001D005B0F0BD4FF05003D6
:104FE00083F31188BFF36F8FBFF34F8FFEE74FF04E
:104FF000500383F31188BFF36F8FBFF34F8F4FF0D0
:10500000FF360D4D0D490E4A0E4B2E6008601460A0
:1050100005B0BDE8F0401847E15E00089590000833
:1050200049444C45C13B00085D480008E561000863
:1050300049470008ED5700084C020020600200209C
:105040006802002041630008024A136801331360BC
:10505000704700BF48020020064B1B6843B94FF061
:10506000500383F31188BFF36F8FBFF34F8FFEE7B9
:10507000014B184748020020714A0008014B18688C
:10508000704700BF6802002008B5024B9847024BEA
:10509000186808BD3964000868020020054B1B68C9
:1050A0000BB9054B1847054A0020136801331360FC
:1050B000704700BF48020020094900085C02002038
:1050C0001D4B1B681BB101221C4B1A6070471B4A09
:1050D00010B41B4C136023681A4903EB830292003F
:1050E0008A58980042B9EBB1013B03EB830251F8B7
:1050F00022209800002AF6D0184401EB800C62466A
:10510000DCF80410083249689142CCF8041008BF5A
:1051100049680D4A08BFCCF80410C96811602360C3
:1051200010BC70474FF0500383F31188BFF36F8FAB
:10513000BFF34F8FFEE700BF480200205802002057
:1051400064020020E002002040070020D8B12DE9D1
:10515000F0410C461A4D1B4E29681831B0471A4BC6
:105160001F682868194B04309847631C14D02B68BB
:10517000E4195C6017D3164B186829683346BDE8FC
:10518000F041043118474FF0500383F31188BFF307
:105190006F8FBFF34F8FFEE729680E480E4B043127
:1051A000BDE8F04118470D4B186829680431B04735
:1051B0000B4B1A68944238BF1C60BDE8F08100BFF9
:1051C00040070020E53B000868020020153C00086D
:1051D000B002002070020020C93B0008B402002089
:1051E0004C02002030B32DE9F04115461C4E0C4610
:1051F00031681C4F1831B8471B4A1C4B7DB91568E4
:10520000306804309847336864195C601BD3184ACF
:10521000184B10683168BDE8F04104311847126836
:1052200030680430984731683B46BDE8F041124889
:10523000043118474FF0500383F31188BFF36F8F89
:10524000BFF34F8FFEE70D4A0A4B106831680431F7
:1052500098470B4B1A68944238BF1C60BDE8F08138
:1052600040070020C93B000868020020153C0008E8
:10527000B0020020E53B000870020020B4020020CC
:105280004C020020C36870B5DC6844B304F1180513
:105290002846184EB047184B1B6873B1294617486B
:1052A000174B9847174BE26A1B68DB6A9A421FD973
:1052B0000123154A1846136070BD251D2846B047C6
:1052C000124AE36A116812488B4288BF136003EBED
:1052D000830329460A4A00EB83009047E2E74FF038
:1052E000500383F31188BFF36F8FBFF34F8FFEE737
:1052F000002070BD153C0008480200209C020020E0
:10530000C93B00084007002058020020640200202A
:10531000E0020020034A044B12681B68C0E9002326
:10532000704700BF540200206802002010B370B51F
:105330000D46B1B11E4B044698472B681D4A581CB8
:1053400011682CD0D4E90060DFF86CC0DCF800E014
:10535000764518D0884216D80124184B9847204625
:1053600070BD4FF0500383F31188BFF36F8FBFF30D
:105370004F8FFEE74FF0500383F31188BFF36F8F19
:10538000BFF34F8FFEE7A1EB000E73450CD95B1AFC
:10539000DCF80010126803442B60C4E900120024FA
:1053A000064B9847204670BD00232B60D4E700BF12
:1053B000356200086802002054020020796200086B
:1053C0000122014B1A60704758020020054B1B68F0
:1053D00033B1054B1868B0FA80F0400940007047BF
:1053E00001207047600200204802002018B310B569
:1053F0001F4B82B01C68844208D04FF0500383F3E7
:105400001188BFF36F8FBFF34F8FFEE7236D4BB152
:10541000E16AE26C013B9142236500D06BB1002050
:1054200002B010BD4FF0500383F31188BFF36F8FAC
:10543000BFF34F8FFEE700207047211D08460D4B3C
:10544000019198470C4AE36C1068C3F1380C834211
:105450000A4888BF1360E36203EB830300EB830019
:105460000199074AC4F818C090470120D8E700BF47
:1054700040070020153C000864020020E0020020E4
:10548000C93B00082DE9F041214E224F84B00DE0C8
:10549000DB68DC68D3F80080251D2846B847236AFE
:1054A0002046984794F828305B070AD433681A6876
:1054B000002AEDD1184A11681360316004B0BDE8CC
:1054C000F081A36915494344984506D26360294693
:1054D0003068134B24619847E8E70B6873B10025E7
:1054E000104BCDE90184009598470C492B4608687C
:1054F0002A4669460C4CA0470028D7D14FF05003EC
:1055000083F31188BFF36F8FBFF34F8FFEE700BFA8
:1055100044080020153C0008400800203C080020FA
:10552000E53B0008CD530008A13D00082DE9F04FF0
:10553000DFF86882DFF868929A4EDFF86CA29B4C25
:105540009B4D8BB0D8F80020D2F800B0BBF1000F13
:1055500040F0AD80C847974B984732680746904265
:10556000C0F0B480944B30601A681268B2FA82F2CC
:1055700052092068914BABEB07019847D04748B9D7
:105580004FF0E0234FF08052C3F8042DBFF34F8F4C
:10559000BFF36F8F0022206802A9A8470028D1D04E
:1055A000029B0498002B7ADB049F7B6913B1844B28
:1055B000381D98477F4B9847336883469842C0F020
:1055C0008A80029BC6F800B0092BE3D8DFE803F01D
:1055D000050505573F5E0505573F97F82830BA691E
:1055E00043F0010387F82830039B3F6199182CBFD3
:1055F000012000205945796000F28B80ABEB03035A
:105600009A4200F2A1803B6A3846984797F82830C2
:105610005907BFD523688BB14FF0000BBB69039AC4
:1056200008971A44CDE906B2664B9847664F5B4629
:105630005A46206806A9B8470028ABD14FF050035E
:1056400083F31188BFF36F8FBFF34F8FFEE797F897
:10565000283043F0010387F82830039BBB61002BFF
:1056600000F0BA805B445B457B6096BF524BD8F834
:10567000000018683F61554B391D98478AE797F835
:10568000283023F0010387F8283083E797F8283083
:105690009A0749D523F0010387F828307AE7039B5E
:1056A00005999847029B002BFFF674AF7CE7D368FF
:1056B000D3F800B0C8473F4B98473268074682424C
:1056C00004D88345306009D9002252E7404B9847FF
:1056D0003760D0475EE73E4B984772E7D047D8F82F
:1056E0000020D268D368364A191D084600930191FC
:1056F0009047009B019993F8282012F0040F17D1CE
:1057000022F0010283F82820009B18461B6A984764
:1057100040E75B4502D900283FF475AFD8F8000098
:105720002A4B391D984735E738462A4B984731E7C9
:1057300098691B610BEB0002BA425A600AD9D8F88B
:105740000000224B9847DFE71B4B391D18681F4BA1
:1057500098471FE7A7EB0B07B8421AD822687AB11F
:105760000027009B06970893CDF81CB0154B98476F
:105770003B463A462068144F06A9B8470028C3D1D3
:105780004FF0500383F31188BFF36F8FBFF34F8F38
:10579000FEE7094B18680D4B9847B5E74408002011
:1057A0004950000834080020595000083C080020E7
:1057B000D14100087D5000084008002069460008DB
:1057C000153C0008CD530008A13D0008E53B00084A
:1057D000855400089D6000084FF0500383F3118842
:1057E000BFF36F8FBFF34F8FFEE700BF2DE9F0418E
:1057F000234C244B88B0984725683DB3224B9847EB
:105800002368D3B10024214B07AA06A905A8CDE936
:10581000054498470222059B0092069A0293019242
:1058200023461B491B481C4D079AA8471B4B186071
:1058300018B1012008B0BDE8F0814FF0500383F3A8
:105840001188BFF36F8FBFF34F8FFEE7144E154FD4
:105850003046DFF85480C0473846C0471349144BE0
:1058600000950A201F600E60124B1021124A134D42
:10587000A84720600028C1D01149124B9847BDE7C6
:105880003C0800203562000879620008FD5E0008CF
:1058900044AE00082D550008C54B0008380800200C
:1058A0005C08002048080020A93B000844080020AC
:1058B000400800204407002094070020B93C00085D
:1058C0003CAE0008194600082DE9F043294C074674
:1058D00085B02C200D4690461E46A0470446E8B1F0
:1058E000002380F82830EDB1DFF88C90234B9847E7
:1058F000D9F80030FBB1224B98470C9AC4E9065600
:10590000204B27602262201D9847B8F1000F05D078
:1059100094F8283043F0040384F82830204605B07A
:10592000BDE8F0834FF0500383F31188BFF36F8F0E
:10593000BFF34F8FFEE7144A14491046039388477C
:10594000134812498847039B0F4A0093114B104894
:105950001A60114B10211860104A0A20104BDFF812
:1059600044C0E047C9F800000028C4D00E490F4BDE
:105970009847C0E7195F00083C080020356200081E
:1059800079620008C13B00085C080020A93B0008C0
:105990004808002044080020400800209407002008
:1059A00044070020B93C00083CAE00081946000836
:1059B0002DE9F0412C2486B00594059C2C2C08D0B0
:1059C0004FF0500383F31188BFF36F8FBFF34F8FF6
:1059D000FEE71D46059B0D9B2BB316461A46022378
:1059E0000F4682F8283039B3274C284B8046984719
:1059F000226852B3264B98470D9A0C99C2E9067556
:105A0000244BC2F800801162101D98473EB10D9BD7
:105A10000D9A93F8283043F0040382F828300D984B
:105A200006B0BDE8F0814FF0500383F31188BFF357
:105A30006F8FBFF34F8FFEE74FF0500383F3118852
:105A4000BFF36F8FBFF34F8FFEE7134B1349184619
:105A500003928847124811498847039A0E4B0092D7
:105A6000104A0F481360104B102118600F4A0A208B
:105A70000F4BDFF840C0E04720600028BAD00E4945
:105A80000E4B9847B6E700BF3C080020356200087F
:105A900079620008C13B00085C080020A93B0008AF
:105AA00048080020440800204008002094070020F7
:105AB00044070020B93C00083CAE00081946000825
:105AC000D0B130B5184D85B02C6894B10529CDE919
:105AD0000012029019DC154B984702284FF0000382
